{
  "contractName": "Voting",
  "abi": [
    {
      "constant": true,
      "inputs": [
        {
          "name": "",
          "type": "bytes32"
        }
      ],
      "name": "votesReceived",
      "outputs": [
        {
          "name": "",
          "type": "uint256"
        }
      ],
      "payable": false,
      "stateMutability": "view",
      "type": "function"
    },
    {
      "constant": true,
      "inputs": [],
      "name": "totalTokens",
      "outputs": [
        {
          "name": "",
          "type": "uint256"
        }
      ],
      "payable": false,
      "stateMutability": "view",
      "type": "function"
    },
    {
      "constant": true,
      "inputs": [],
      "name": "tokenPrice",
      "outputs": [
        {
          "name": "",
          "type": "uint256"
        }
      ],
      "payable": false,
      "stateMutability": "view",
      "type": "function"
    },
    {
      "constant": true,
      "inputs": [
        {
          "name": "",
          "type": "uint256"
        }
      ],
      "name": "candidateList",
      "outputs": [
        {
          "name": "",
          "type": "bytes32"
        }
      ],
      "payable": false,
      "stateMutability": "view",
      "type": "function"
    },
    {
      "constant": true,
      "inputs": [
        {
          "name": "",
          "type": "address"
        }
      ],
      "name": "voterInfo",
      "outputs": [
        {
          "name": "voterAddress",
          "type": "address"
        },
        {
          "name": "tokensBought",
          "type": "uint256"
        }
      ],
      "payable": false,
      "stateMutability": "view",
      "type": "function"
    },
    {
      "constant": true,
      "inputs": [],
      "name": "balanceTokens",
      "outputs": [
        {
          "name": "",
          "type": "uint256"
        }
      ],
      "payable": false,
      "stateMutability": "view",
      "type": "function"
    },
    {
      "inputs": [
        {
          "name": "tokens",
          "type": "uint256"
        },
        {
          "name": "pricePerToken",
          "type": "uint256"
        },
        {
          "name": "candidateNames",
          "type": "bytes32[]"
        }
      ],
      "payable": false,
      "stateMutability": "nonpayable",
      "type": "constructor"
    },
    {
      "constant": false,
      "inputs": [],
      "name": "buy",
      "outputs": [
        {
          "name": "",
          "type": "uint256"
        }
      ],
      "payable": true,
      "stateMutability": "payable",
      "type": "function"
    },
    {
      "constant": true,
      "inputs": [
        {
          "name": "candidate",
          "type": "bytes32"
        }
      ],
      "name": "totalVotesFor",
      "outputs": [
        {
          "name": "",
          "type": "uint256"
        }
      ],
      "payable": false,
      "stateMutability": "view",
      "type": "function"
    },
    {
      "constant": false,
      "inputs": [
        {
          "name": "candidate",
          "type": "bytes32"
        },
        {
          "name": "votesInTokens",
          "type": "uint256"
        }
      ],
      "name": "voteForCandidate",
      "outputs": [],
      "payable": false,
      "stateMutability": "nonpayable",
      "type": "function"
    },
    {
      "constant": true,
      "inputs": [
        {
          "name": "candidate",
          "type": "bytes32"
        }
      ],
      "name": "indexOfCandidate",
      "outputs": [
        {
          "name": "",
          "type": "uint256"
        }
      ],
      "payable": false,
      "stateMutability": "view",
      "type": "function"
    },
    {
      "constant": true,
      "inputs": [],
      "name": "tokensSold",
      "outputs": [
        {
          "name": "",
          "type": "uint256"
        }
      ],
      "payable": false,
      "stateMutability": "view",
      "type": "function"
    },
    {
      "constant": true,
      "inputs": [
        {
          "name": "user",
          "type": "address"
        }
      ],
      "name": "voterDetails",
      "outputs": [
        {
          "name": "",
          "type": "uint256"
        },
        {
          "name": "",
          "type": "uint256[]"
        }
      ],
      "payable": false,
      "stateMutability": "view",
      "type": "function"
    },
    {
      "constant": false,
      "inputs": [
        {
          "name": "account",
          "type": "address"
        }
      ],
      "name": "transferTo",
      "outputs": [],
      "payable": false,
      "stateMutability": "nonpayable",
      "type": "function"
    },
    {
      "constant": true,
      "inputs": [],
      "name": "allCandidates",
      "outputs": [
        {
          "name": "",
          "type": "bytes32[]"
        }
      ],
      "payable": false,
      "stateMutability": "view",
      "type": "function"
    }
  ],
  "bytecode": "0x608060405234801561001057600080fd5b50604051610cc5380380610cc5833981018060405281019080805190602001909291908051906020019092919080518201929190505050806002908051906020019061005d92919061007b565b508260038190555082600481905550816005819055505050506100f3565b8280548282559060005260206000209081019282156100bd579160200282015b828111156100bc57825182906000191690559160200191906001019061009b565b5b5090506100ca91906100ce565b5090565b6100f091905b808211156100ec5760008160009055506001016100d4565b5090565b90565b610bc3806101026000396000f3006080604052600436106100d0576000357c0100000000000000000000000000000000000000000000000000000000900463ffffffff1680632f265cf7146100d5578063518ab2a81461011a5780635938750d146101455780636b2dc6b5146101e45780637021939f1461021f5780637e1c0c09146102645780637ff9b5961461028f57806381c40715146102ba578063a03fa7e314610326578063a6f2ae3a14610369578063b13c744b14610387578063cdf58d35146103d0578063e4494a0f1461045a578063ecd098b014610485575b600080fd5b3480156100e157600080fd5b5061010460048036038101908080356000191690602001909291905050506104ca565b6040518082815260200191505060405180910390f35b34801561012657600080fd5b5061012f6104ef565b6040518082815260200191505060405180910390f35b34801561015157600080fd5b50610186600480360381019080803573ffffffffffffffffffffffffffffffffffffffff1690602001909291905050506104fd565b6040518083815260200180602001828103825283818151815260200191508051906020019060200280838360005b838110156101cf5780820151818401526020810190506101b4565b50505050905001935050505060405180910390f35b3480156101f057600080fd5b5061021d6004803603810190808035600019169060200190929190803590602001909291905050506105df565b005b34801561022b57600080fd5b5061024e6004803603810190808035600019169060200190929190505050610879565b6040518082815260200191505060405180910390f35b34801561027057600080fd5b50610279610891565b6040518082815260200191505060405180910390f35b34801561029b57600080fd5b506102a4610897565b6040518082815260200191505060405180910390f35b3480156102c657600080fd5b506102cf61089d565b6040518080602001828103825283818151815260200191508051906020019060200280838360005b838110156103125780820151818401526020810190506102f7565b505050509050019250505060405180910390f35b34801561033257600080fd5b50610367600480360381019080803573ffffffffffffffffffffffffffffffffffffffff1690602001909291905050506108f9565b005b61037161095a565b6040518082815260200191505060405180910390f35b34801561039357600080fd5b506103b260048036038101908080359060200190929190505050610a64565b60405180826000191660001916815260200191505060405180910390f35b3480156103dc57600080fd5b50610411600480360381019080803573ffffffffffffffffffffffffffffffffffffffff169060200190929190505050610a87565b604051808373ffffffffffffffffffffffffffffffffffffffff1673ffffffffffffffffffffffffffffffffffffffff1681526020018281526020019250505060405180910390f35b34801561046657600080fd5b5061046f610acb565b6040518082815260200191505060405180910390f35b34801561049157600080fd5b506104b46004803603810190808035600019169060200190929190505050610ad1565b6040518082815260200191505060405180910390f35b6000600160008360001916600019168152602001908152602001600020549050919050565b600060045460035403905090565b600060606000808473ffffffffffffffffffffffffffffffffffffffff1673ffffffffffffffffffffffffffffffffffffffff168152602001908152602001600020600101546000808573ffffffffffffffffffffffffffffffffffffffff1673ffffffffffffffffffffffffffffffffffffffff168152602001908152602001600020600201808054806020026020016040519081016040528092919081815260200182805480156105cf57602002820191906000526020600020905b8154815260200190600101908083116105bb575b5050505050905091509150915091565b60008060006105ed85610ad1565b92507fffffffffffffffffffffffffffffffffffffffffffffffffffffffffffffffff831415151561061e57600080fd5b60008060003373ffffffffffffffffffffffffffffffffffffffff1673ffffffffffffffffffffffffffffffffffffffff1681526020019081526020016000206002018054905014156106f757600091505b6002805490508210156106f6576000803373ffffffffffffffffffffffffffffffffffffffff1673ffffffffffffffffffffffffffffffffffffffff168152602001908152602001600020600201600090806001815401808255809150509060018203906000526020600020016000909192909190915055508180600101925050610670565b5b61078f6000803373ffffffffffffffffffffffffffffffffffffffff1673ffffffffffffffffffffffffffffffffffffffff16815260200190815260200160002060020180548060200260200160405190810160405280929190818152602001828054801561078557602002820191906000526020600020905b815481526020019060010190808311610771575b5050505050610b4e565b6000803373ffffffffffffffffffffffffffffffffffffffff1673ffffffffffffffffffffffffffffffffffffffff168152602001908152602001600020600101540390508381101515156107e357600080fd5b8360016000876000191660001916815260200190815260200160002060008282540192505081905550836000803373ffffffffffffffffffffffffffffffffffffffff1673ffffffffffffffffffffffffffffffffffffffff1681526020019081526020016000206002018481548110151561085b57fe5b90600052602060002001600082825401925050819055505050505050565b60016020528060005260406000206000915090505481565b60035481565b60055481565b606060028054806020026020016040519081016040528092919081815260200182805480156108ef57602002820191906000526020600020905b815460001916815260200190600101908083116108d7575b5050505050905090565b8073ffffffffffffffffffffffffffffffffffffffff166108fc3073ffffffffffffffffffffffffffffffffffffffff16319081150290604051600060405180830381858888f19350505050158015610956573d6000803e3d6000fd5b5050565b6000806005543481151561096a57fe5b049050600454811115151561097e57600080fd5b336000803373ffffffffffffffffffffffffffffffffffffffff1673ffffffffffffffffffffffffffffffffffffffff16815260200190815260200160002060000160006101000a81548173ffffffffffffffffffffffffffffffffffffffff021916908373ffffffffffffffffffffffffffffffffffffffff160217905550806000803373ffffffffffffffffffffffffffffffffffffffff1673ffffffffffffffffffffffffffffffffffffffff16815260200190815260200160002060010160008282540192505081905550806004600082825403925050819055508091505090565b600281815481101515610a7357fe5b906000526020600020016000915090505481565b60006020528060005260406000206000915090508060000160009054906101000a900473ffffffffffffffffffffffffffffffffffffffff16908060010154905082565b60045481565b600080600090505b600280549050811015610b24578260001916600282815481101515610afa57fe5b9060005260206000200154600019161415610b1757809150610b48565b8080600101915050610ad9565b7fffffffffffffffffffffffffffffffffffffffffffffffffffffffffffffffff91505b50919050565b6000806000809150600090505b8351811015610b8d578381815181101515610b7257fe5b90602001906020020151820191508080600101915050610b5b565b81925050509190505600a165627a7a7230582067f1c3aeb1906dc5676b3d688b373d6964b9c77528b9f5ef3d5a5f3b9749100c0029",
  "source": "pragma solidity ^0.4.18; \r\n\r\ncontract Voting {\r\n\r\n\tstruct voter {\r\n\t\taddress voterAddress;\r\n\t\tuint tokensBought;\r\n\t\tuint[] tokensUsedPerCandidate;\r\n\t}\r\n\r\n\tmapping (address => voter) public voterInfo;\r\n\r\n\tmapping (bytes32 => uint) public votesReceived;\r\n\r\n\tbytes32[] public candidateList;\r\n\r\n\tuint public totalTokens; \r\n\tuint public balanceTokens;\r\n\tuint public tokenPrice;\r\n\r\n\tconstructor(uint tokens, uint pricePerToken, bytes32[] candidateNames) public {\r\n\t\tcandidateList = candidateNames;\r\n\t\ttotalTokens = tokens;\r\n\t\tbalanceTokens = tokens;\r\n\t\ttokenPrice = pricePerToken;\r\n\t}\r\n\r\n\tfunction buy() payable public returns (uint) {\r\n\t\tuint tokensToBuy = msg.value / tokenPrice;\r\n\t\trequire(tokensToBuy <= balanceTokens);\r\n\t\tvoterInfo[msg.sender].voterAddress = msg.sender;\r\n\t\tvoterInfo[msg.sender].tokensBought += tokensToBuy;\r\n\t\tbalanceTokens -= tokensToBuy;\r\n\t\treturn tokensToBuy;\r\n\t}\r\n\r\n\tfunction totalVotesFor(bytes32 candidate) view public returns (uint) {\r\n\t\treturn votesReceived[candidate];\r\n\t}\r\n\r\n\tfunction voteForCandidate(bytes32 candidate, uint votesInTokens) public {\r\n\t\tuint index = indexOfCandidate(candidate);\r\n\t\trequire(index != uint(-1));\r\n\r\n\t\tif (voterInfo[msg.sender].tokensUsedPerCandidate.length == 0) {\r\n\t\t\tfor(uint i = 0; i < candidateList.length; i++) {\r\n\t\t\t\tvoterInfo[msg.sender].tokensUsedPerCandidate.push(0);\r\n\t\t\t}\r\n\t\t}\r\n\r\n\t\tuint availableTokens = voterInfo[msg.sender].tokensBought - totalTokensUsed(voterInfo[msg.sender].tokensUsedPerCandidate);\r\n\t\trequire (availableTokens >= votesInTokens);\r\n\r\n\t\tvotesReceived[candidate] += votesInTokens;\r\n\t\tvoterInfo[msg.sender].tokensUsedPerCandidate[index] += votesInTokens;\r\n\t}\r\n\r\n\tfunction totalTokensUsed(uint[] _tokensUsedPerCandidate) private pure returns (uint) {\r\n\t\tuint totalUsedTokens = 0;\r\n\t\tfor(uint i = 0; i < _tokensUsedPerCandidate.length; i++) {\r\n\t\t\ttotalUsedTokens += _tokensUsedPerCandidate[i];\r\n\t\t}\r\n\t\treturn totalUsedTokens;\r\n\t}\r\n\r\n\tfunction indexOfCandidate(bytes32 candidate) view public returns (uint) {\r\n\t\tfor(uint i = 0; i < candidateList.length; i++) {\r\n\t\t\tif (candidateList[i] == candidate) {\r\n\t\t\t\treturn i;\r\n\t\t\t}\r\n\t\t}\r\n\t\treturn uint(-1);\r\n\t}\r\n\r\n\tfunction tokensSold() view public returns (uint) {\r\n\t\treturn totalTokens - balanceTokens;\r\n\t}\r\n\r\n\tfunction voterDetails(address user) view public returns (uint, uint[]) {\r\n\t\treturn (voterInfo[user].tokensBought, voterInfo[user].tokensUsedPerCandidate);\r\n\t}\r\n\r\n\tfunction transferTo(address account) public {\r\n\t\taccount.transfer(this.balance);\r\n\t}\r\n\r\n\tfunction allCandidates() view public returns (bytes32[]) {\r\n\t\treturn candidateList;\r\n\t}\r\n}\r\n",
  "sourcePath": "/mnt/d/Documents/Training/Project/ethereum/token_based_voting_dapp/contracts/Voting.sol",
  "compiler": {
    "name": "solc",
    "version": "0.4.24+commit.e67f0147.Emscripten.clang"
  },
  "schemaVersion": "2.0.1",
  "updatedAt": "2018-10-15T22:00:34.861Z"
}